:20C00000FFFFFFFFFFFFFFFFFFFFFFFFFFFFFFFFFFFFFFFFFFFFFFFFFFFFFFFFFFFFFFFF40
:20C02000FFFFFFFFFFFFFFFFFFFFFFFFFFFFFFFFFFFFFFFFFFFFFFFFFFFFFFFFFFFFFFFF20
:20C04000FFFFFFFFFFFFFFFFFFFFFFFFFFFFFFFFFFFFFFFFFFFFFFFFFFFFFFFFFFFFFFFF00
:20C06000FFFFFFFFFFFFFFFFFFFFFFFFFFFFFFFFFFFFFFFFFFFFFFFFFFFFFFFFFFFFFFFFE0
:20DB00008D0327FC39B6A00085012706B6A001847F394F398D243402810D270BB7A0010CEA
:20DB2000799679917825100F798D0F860DB7A0018D08860AB7A0013502393402B6A0008512
:20DB40000227F935023910CE01EE966E8155260A9E6FA684811226026E848E02186F8330AE
:20DB60000126FA8E02176F809F19A60243A702A10226063001630120F19F719F279F233065
:20DB800089FF389F211F148EDBCECE0076C612BDDCAECE00A7C604BDDCAE863997F0BDDFD0
:20DBA000BA8E00B59F8DCEE6CEC60AEF815A26FB8695B7A0008EDC03BDEBE58EDBC69F6F56
:20DBC0008655976E200412BDDFD47EDF223B10405000E6CE0C8426020C83B600007EDCBF9B
:20DBE0007EDCBE7EDBCD7EE6CE804FC7525932DD1DDE2A1DDDBDDCCE0000000000000000DF
:20DC0000000000003638303920455854454E4445442042415349430D2843292031393832A5
:20DC2000204259204D4943524F534F46540D0D0034169E76DC789F6AD76C976D35960F73EA
:20DC40008E00F4C601BDDB00810826075A27EF301F20348115260A5A27E48608BDDB142095
:20DC6000F681031A012705810D260D4F3401BDEBA56F848E00F33581812025C9817B24C5B3
:20DC8000C1FA24C1A7805CBDDB1420B92705BDE9C19F7A6E9F007A7EE0A396732603BDDBDE
:20DCA000050F73975310260C6A97567EE91FA680A7C05A26F939399D8227FB7EE5003B81FC
:20DCC0003A240A812026020E7C803080D039EEC3EF37EEDC00ADF168F1BDE9D4E905E781E8
:20DCE000E99AE924E910F26DF235F23EF3AFF3E1F303F569F33DFA3BE92FE94CE953DC9AB7
:20DD0000E772F571F631F60179EC0E79EC057BED157BEDDA7FF34650E55946E558464FD25A
:20DD200047CF5245CDA7454C53C549C6444154C15052494ED44FCE494E5055D4454EC44E91
:20DD40004558D44449CD524541C45255CE524553544F52C55245545552CE53544FD0504F7E
:20DD60004BC5434F4ED44C4953D4434C4541D24E45D7455845C354524FCE54524F46C64425
:20DD800045CC4445C64C494EC552454E55CD454449D4544142A854CF5355C2544845CE4EC5
:20DDA0004FD4535445D04F46C6ABADAAAFDE414EC44FD2BEBDBC46CE5553494EC75347CE6D
:20DDC000494ED44142D35553D2524EC45349CE504545CB4C45CE535452A45641CC4153C3DF
:20DDE000434852A44154CE434FD35441CE4558D04649D84C4FC7504FD35351D2484558A4D0
:20DE00004C454654A45249474854A44D4944A4494E4B4559A44D45CD5641525054D2494E1A
:20DE20005354D2535452494E47A4DFE8E133E190E190E190E1C1E18DEB6AE1EFE29CE0BA73
:20DE4000E381E5D2E2D6E128E09CE16DE0BEE9DBE0E3E9E2E0F4DFB8DC8CF564F565F7E0CF
:20DE6000F724FECEF86AF3F04E46534E52474F4446434F564F4D554C425344442F304944A1
:20DE8000544D4F534C535354434E4644414F444E494F464D4E4F4945445355464E4520453C
:20DEA00052524F520020494E20000D4F4B0D000D425245414B003064C6129F0FA6848080DC
:20DEC0002615AE019F119E3B27099C1127099E0F3A20E59E119F3B9E0F4D398D17DE413324
:20DEE000419E433001A68236029C4726F8DF45394F58D31FC3003A250810DF171093172569
:20DF0000EEC60CBDDFD4BDEBA9BDEBF88EDE683A8D318D2F8EDE9DBDEBE596684C2703BD91
:20DF2000F00EBDEBA98EDEAABDEBE5BDDC3ECEFFFFDF6825F69F839D7C27F0250BBDEA972A
:20DF40007EE071A6807EEBFABDE2149E2B9FF1BDEA97D7038D4C2512DC47A384D31BDD1B05
:20DF6000EE843702A7809C1B26F896F3271CDC1BDD43DB038900DD41BDDEDBCE00EF370226
:20DF8000A7809C4526F89E419F1B8D368D02209B9E19EC8427213304A6C026FCEF84AE84E2
:20DFA00020F0DC2B9E19EE84270910A3022306AE8420F31A019F473926FB9E196F806F80DE
:20DFC0009F1B9E19BDE1689E279F23BDE09C9E1B9F1D9F1F8E00C99F0BAEE410DE216FE2E4
:20DFE0000F2D0F2E0F086E8486809708BDE236BDDEB6326226049E0F3285C609BDDEF0BD9B
:20E00000E195DC683416C6A0BDE4F8BDE3CCBDE3CAD654CA7FD450D750108EE0207EE473F6
:20E020008EED0EBDEE5D9D8281A426059D7CBDE3CABDEEB6BDE46FDC3B3406868034021C43
:20E04000AF8D609E839F2FA6802707813A27227EE500A68197002772EC80DD689F83968C2E
:20E06000270F865BBDDB149668BDF015865DBDDB149D7C8D0220C827294D102A01B881FFEE
:20E08000270F819E22C9BEDBF1481F893A9D7C6E949D7C8197102714F07EE5009E19301F9C
:20E0A0009F3339BDDB05270A8103271281132703977339BDDB0527FB20EE9D8220021A01A0
:20E0C00026319E839F2F060032629E688CFFFF27069F299E2F9F2D8EDEAE0D00102AFE42A1
:20E0E0007EDF17260EC6209E2D1027FE169F839E299F6839272CBDE66A34069E279D8227AE
:20E100000CBDE4F6BDE9C1301F9C7122181F10A3E125121F0383003A250B931B2507DF218C
:20E120009F277EDFC77EDF019D821027FE94BDDFC720191F899D7CC1A02716C1A12645C621
:20E1400003BDDEF0DE839E6886A134528D037EE03F9D82BDE2148D403001DC2B10936822EC
:20E16000029E19BDDFA62517301F9F833926FD86FF973BBDDEB61F148121270BC6048CC6D0
:20E180000E7EDF037EE50035529F68DF838D068C8D069F8339C63A865FD7015F9E831F98BD
:20E1A000D6019701A68427EC3404A1E027E63001812227EA4C26023001818626E70C04201F
:20E1C000E3BDE3CA9D8281812705C6A2BDE4F8964F26130F048DB64D27BA9D7C818426F5C9
:20E1E0000A042AF19D7C9D821025FF657EE077BDE98FC681BDE4F8340281A1270481A02671
:20E20000830A53260535047EE1359D7C8D06812C27EF35849E749F2B246180309701DC2B4E
:20E22000811822DB58495849D32B5849DB018900DD2B9D7C20E2BDE5DB9F3BC6AEBDE4F87B
:20E2400096063402BDE3DF350246BDE3D110270C2B9E52DC2110A30224119C1B250DE684E7
:20E26000BDE7919E4DBDE8C78E00569F4DBDE8F9DE4D9E3B3726A78410AF02393F52454404
:20E280004F0D007EDF03960927079E319F687EE5008EE27BBDEBE59E2F9F8339C6169E683A
:20E2A000300127DF8D01398122260BBDE4CDC63BBDE4F8BDEBE88E00F36F848D06C62CE714
:20E2C000842016BDEBF8BDEBF5BDDC3E240532647EE0C6C62E399E33864F97099F35BDE5A4
:20E2E000DB9F3B9E839F2B9E35A684260996092651BDEBF88DCD9F839D7CD60627239E83C0
:20E3000097018122270E301F4F9701BDDC30863A9701862C9702BDE7A2BDE4D2BDE2512022
:20E3200006BDEF5BBDEE7C9D822706812C1026FF529E839F359E2B9F839D822721BDE4F64B
:20E34000209C9F83BDE19530014D260AC606EE812741EC81DD31A684818626E620989E3518
:20E36000D6091026FD3AA68427068EE3707EEBE5393F45585452412049474E4F5245440D9A
:20E380000026049E742003BDE5DB9F3BBDDEB62704C60020471F143003BDEE5DA6689754B7
:20E3A0009E3BBDEC0BBDEE7C3069BDEEDFE068270CAE6E9F68AEE8109F837EE03F32E81257
:20E3C0009D82812C26F49D7C8DBD8D131CFE7D1A010D0625032A998C2B96C6187EDF038D8C
:20E3E0006E4F8C34043402C601BDDEF0BDE4AC0F3F9D8280AD25138103240F810149983F9C
:20E40000913F2564973F9D7C20E9D63F26331024006B8B07246799061027047789FF340272
:20E4200048ABE08EDD0830863502A18424558D9C34028D299E3D3502261D4D1027006A2093
:20E440004B0806598D098EE454D73F0F0620D99E837EE16864E578A184243120D3EC013453
:20E46000068D08D63F16FF7B7EE500D654A68435203404D64F9E50DE5234546EA49E74A683
:20E48000E0272681642703BDE3CC9F3D3504815A2719817D271554D70A3552975C9F5DDFE0
:20E4A0005F3504D761D854D762D64F39BDF6F90F069D7C24037EEF5BBDE6262450812E27ED
:20E4C000F481A7274081A627E38122260A9E83BDE79C9E649F833981A3260D865ABDE3E33D
:20E4E000BDE67143537EE7784C272E8D06BDE3DFC6298CC6288CC62CE19F008326020E7C46
:20E50000C6027EDF03867DBDE3E37EF132BDE5DB9F52960626957EEE5D9D7C1F89589D7CEC
:20E52000C13823037EE5003404C12A251EC130241C8DC0A6E4BDE3DF8DBCBDE3CF3502DE9F
:20E54000523442BDE98F350234068E8D9E3504BEDBF63AAD947EE3CC864F9703BDE671DDC4
:20E5600001BDEE93BDE6710D0326069401D40220049A01DA027EE778BDE3D1261096618A01
:20E580007F945D975D8E005CBDEEDF20360F060A3FBDE8DBD7569F589E5FBDE8DD965634AC
:20E5A00004A0E0270786012403D656409754DE585C5A2604D654200BA680A1C027F3C6FFD3
:20E5C000240150CB0159D40A2702C6FF7EEEC5BDE4F6C6018D089D8226F5395F9D82D705E4
:20E5E00097379D828D401025FF165FD7069D7C25048D33250A1F899D7C25FC8D2924F88175
:20E600002426060306CB809D7CD7389A088028102700750F089E1BDC379C1D271210A3812F
:20E62000273E300520F381412504805B80A5398E0074EEE41183E5102728DC1FDD43C3007F
:20E6400007DD419E1D9F47BDDEDB9E419F1F9E459F1D9E47DC37ED814F5FED84ED02A70423
:20E660009F393990800000009D7CBDE3CA96542B5DBDE3CC964F819025088EE663BDEEDF94
:20E68000264CBDEF11DC5239DC053406125F9E3734148DD435349F37DE5234605C9D8281DB
:20E6A0002C27EBD703BDE4F03506DD059E1D9C1F2721DC3710A3842706EC02308B20EFC6E1
:20E6C000129605260BD603E1042759C6108CC6087EDF03CC0005DD64DC37ED84D603E70434
:20E6E000BDDEF09F41C60B4F0D0527053506C30001ED058D5DDD6430020A0326E89F0FD367
:20E700000F1025F7FC1F01BDDEF4830035DD1F4F301FA7059C0F26F89E41961F9341ED02F5
:20E720009605262DE604D7034F5FDD643506DD5210A305243ADE6427048D17D35230020A46
:20E740000326E7EDE358495849E3E1308B30059F393986109745EC05DD174F5F5849250FF8
:20E76000086509642404D31725050A4526EE397EE6CB1F40931F214F0F06DD50C6907EEE33
:20E78000CBBDE3CCCE01F0BDF02532628E01EF200B9F4D8D5C9F58D75639301F86229701B3
:20E7A000970230019F629F58C6FF5CA680270C91012704910226F381222702301F9F64D7BF
:20E7C00056DE62118301F022078DC69E62BDE8C99E0B8C00F12605C61E7EDF039656A7000C
:20E7E000DC58ED0286FF97069F0D9F5230059F0B390F074F3406DC23A3E0109321250ADD2E
:20E80000239E2330019F253584C61A030727CA8D04350420DE9E279F234F5FDD4B9E219F08
:20E82000478E00C99C0B27048D3220F89E1B9C1D27048D2220F89F419E419C1F2735EC0269
:20E84000D341DD41A6012AF0E60458CB053A9C4127E88D0820F8A60130022A14E684271028
:20E86000EC02109323220910934723049F4BDD473005399E4B27FB4FE6845AD347DD439E36
:20E88000239F41BDDEDD9E4BDC45ED029E45301F7EE817DC523406BDE4ACBDE3CF35109F4D
:20E8A00062E6849E52EB842405C61C7EDF03BDE7919E62E6848D109E4D8D228D0C9E628DC6
:20E8C0001CBDE7D07EE3F1AE02DE255C2004A680A7C05A26F9DF2539BDE3CF9E52E6848D8A
:20E8E000182613AE07301F9C2326083404D323DD233504300139AE02399C0D26079F0B306C
:20E900001B9F0D4F398D037EE7778DCC0F065D39BDE992C601BDE7F19653BDE795A7843225
:20E92000627EE7D08D0220DF8DE0275EE684398D484FE1842303E6844F3406BDE7939E4D59
:20E940008D9B35043A3504BDE8C920D58D2BA0844020DFC6FFD7539D8281292705BDE4F6EA
:20E960008D2D8D1527245F4AA18424CD1F89E08450D15323C4D65320C0BDE4F0EEE4AE654B
:20E980009F4DA664E66432671F357EE6CE9D7CBDE3CABDE66D4D26F20E82BDE90A102702A7
:20E9A000E1DE839F833AA68434526F849D82BDEF5B3552A784DF83398D079F2BBDE4F6208E
:20E9C000CEBDE3CA96542BC2964F819022BCBDEF119E52398DEEE6847EE7778DDB9E2BE795
:20E9E00084393401BDE214BDDFA29F66350127129D82271381A726099D7C2706BDE21427F0
:20EA00000639CEFFFFDF2B32629E66BDEBA9BDDC97EC8426037EDF229F66EC0210932B22CD
:20EA2000F4BDF015BDEBF59E668D10AE9F0066CE00F4A6C027D5BDEBFA20F73004108E0080
:20EA4000F4A68027512B15813A260DE684C18427F0C18327EC8C86218D3020E5CEDBE481D6
:20EA6000FF2604A6803345847F334A6DC427E7A0C42AF6ABC4EE414A2B066DC02AFC20F709
:20EA8000A6C48D066DC02AF820B7108C01ED2406847FA7A06FA4399E83CE00F30F430F4482
:20EAA000A68027210D43270FBDE626241881302504813923100F438120270A9742812227CF
:20EAC000380D442719A7C02706813A27CF20D16FC06FC01F308300F18E00F29F8339813F7B
:20EAE0002604868720DF81272613CC3A83EDC10F42A68027D0914227CCA7C020F481302543
:20EB000004813C25C0301F34500F41CEDBE40F42334AA6C4273110AE41AEE4E6A0E0802771
:20EB2000FAC180263832623540DA4296412606C1842606863AEDC12094E7C0C18626020C5F
:20EB400044C18227AA2086CEDBE9034126C03550A680A7C0BDE62625EC034320E80C424A29
:20EB600027AE313FE6A02AFC20AF27398D0139BDFACF273E819F2753812C2737813B2760DB
:20EB8000BDE3DF960634022606BDF022BDE79A8D573504BDDC305D26089D82812C27148DE6
:20EBA000549D8226CF860D2051BDDC3027F7966C26F339BDDC30270AD66CD16B25068DE599
:20EBC000201ED66CD06A24FC502010BDE98D81291026F92CBDDC30D06C23058D185A26FB56
:20EBE0009D7C7EEB72BDE79CBDE8DB5C5A27C3A6808D0720F786208C863F7EDB148EF10904
:20EC00002009BDED78035403622003BDED785D102702808E005C1F895D276CD04F2769253C
:20EC20000A974F966197548E004F50C1F82F594F6401BDED03D6622A0B6301630263036334
:20EC40000443890097639653996097539652995F97529651995E97519650995D97505D2A45
:20EC60004425028D5D5F9650262E965197509652975196539752966397530F63CB08C12825
:20EC80002DE44F974F9754398D6D5F20A85C086309530952095109502AF3964F3404A0E0FE
:20ECA000974F23DE8C2508086386009763200C0C4F2728065006510652065324048D0D27AC
:20ECC000EE39035403500351035203539E5230019F5226069E5030019F5039C60A7EDF03AF
:20ECE0008E0012A6049763A603A704A602A703A601A702965BA701CB082FE89663C008276F
:20ED00000C6701660266036604465C26F43981000000008D6327608D7886009713971497E0
:20ED2000159716D6538D22D663D78BD6528D1AD663D78AD6518D12D663D789D6508D0CD641
:20ED400063D788BDEE547EEC652795439613562726241696169B6097169615995F97159665
:20ED600014995E97149613995D46971306140615061606634F20D539EC0197618A80DD5DEE
:20ED8000D661D854D762EC03DD5FA684975CD64F394D27169B4F464928108B80974F270CD2
:20EDA000966297543996544320023262102AFED27EECDBBDEEA8270D8B0225F40F62BDECBE
:20EDC000160C4F27EB398420000000BDEEA88EEDC65FD762BDEE5D8C8D9E2773004F8DB1C1
:20EDE0000C4F27CC8E0013C604D703C6019650915D26139651915E260D9652915F26079608
:20EE00005391602601431FA859240AE7800A032B34272EC6011F8A250E0860095F095E09EB
:20EE20005D25E32BC820DF966090539760965F9252975F965E9251975E965D9250975D2027
:20EE4000D8C64020D0565656D7638D087EEC65C6147EDF039E139F509E159F52393402EC6B
:20EE60000197548A80DD500F63E684AE039F52D74F35828E004520068E00408C9E3B964F03
:20EE8000A78496548A7F9450A7019651A702DE52EF0339966197549E5C9F4F0F63965E9716
:20EEA0005196549E5F9F5239DC4FDD5C9E519F5E9E539F604D39D64F2708D65459C6FF2569
:20EEC0000150398DF1D7500F51C68896508080D74FDC74DD52976397547EEC610F5439E698
:20EEE0008427D3E601D8542BD1D64FE184261DE601CA7FD450E1012613D651E102260DD636
:20EF000052E1032607D653E00426013956D85420ABD64F273DC0A096542A05035BBDECC407
:20EF20008E004FC1F82E06BDECF70F5B390F5B96544906507EED03D64FC1A0241D8DD2D766
:20EF4000639654D754808086A0974F965397017EEC61D750D751D752D753399E749F549F62
:20EF60004F9F519F529F479F452564BDF698812D260403552004812B26049D7C2551812E5B
:20EF80002728814526289D7C256481A7270E812D270A81A62708812B2704200603489D7C79
:20EFA000254C0D48270800472004034626CC96479045974727122A09BDEDCB0C4726F920B3
:20EFC00007BDEDB30A4726F996552A8E7EF132D645D046D7453402BDEDB33504C0308D0281
:20EFE0002098BDEE78BDEEC58E00407EEC0BD6475858DB475880303404ABE09747209F9B91
:20F000003EBC1FFD9E6E6B27FD9E6E6B28008EDEA48D0CDC68DD50C69043BDEECF8D037E65
:20F02000EBE5CE01F18620D6542A02862DA7C0DF6497548630D64F102700C64FC18022086A
:20F040008EF009BDED1386F797458EF004BDEEE92E0F8EEFFFBDEEE92E0EBDEDB30A4520A8
:20F06000F1BDEDCB0C4520E2BDEBFDBDEF11C60196458B0A2B09810B24054A1F8986024A91
:20F080004A9747D7452E0DDE64862EA7C05D27048630A7C08EF10EC6809653AB0397539605
:20F0A00052A90297529651A90197519650A98497505C565928E32403C00B50CB2F30041F52
:20F0C00098847FA7C00A452604862EA7C053C4808CF13226C4A6C2813027FA812E26023326
:20F0E0005F862BD647271C2A03862D50A7428645A741862F4CC00A24FBCB3AED436F4520E1
:20F1000004A7C46F418E01F1398000000000FA0A1F0000989680FFF0BDC0000186A0FFFF35
:20F12000D8F0000003E8FFFFFF9C0000000AFFFFFFFF964F27020354399F64BDEE788D0527
:20F140008D088E00407EED139F64BDEE739E64E680D7559F648DEE9E6430059F64BDEC0BAD
:20F160008E00450A5526EE39BDEEB62B1F27158D10BDEE788D0E8E00408DCA8EED0EBDEC77
:20F180000B7EEF379EB19F509EB39F52BEF1B99F5DBEF1BB9F5FBDED19DC8AC3658BDDB308
:20F1A000DD52DC88C9B08905DDB1DD500F548680974F961597637EEC6540E64DABBDEEA8C6
:20F1C0008EF202D661BDEDD2BDEEA88DB40F62965CD64FBDEC058EF207BDEC0296543402DE
:20F1E0002A09BDEBFD96542B05030ABDF1328EF207BDEC0B35024D2A03BDF1328EF20C7E5A
:20F20000F13983490FDAA27F000000000584E61A2D1B862807FBF88799688901872335DFA5
:20F22000E186A55DE72883490FDAA2A154468F138F524389CD8EF268BDEC0B7EF1BDBDEE35
:20F24000780F0A8DF68E004ABDEE7E8E0040BDEE5D0F54960A8D0C0D4F1027FA7E8E004A44
:20F260007EEDD834027EF1EB81490FDAA2965434022A028D24964F3402818125058EED0E99
:20F280008DDE8EF29DBDF1393502818125068EF268BDEC0235024D2A037EF132390B76B349
:20F2A00083BDD3791EF4A6F57B83FCB0107C0C1F67CA7CDE53CBC17D1464704C7DB7EA512A
:20F2C0007A7D6330887E7E9244993A7E4CCC91C77FAAAAAA138100000000037F5E56CB79FE
:20F2E00080139B0B6480763893168238AA3B20803504F334813504F3348080000000803169
:20F300007217F8BDEEB6102FF3C48EF2EF964F808034028680974FBDEC0B8EF2F4BDEDD8F5
:20F320008EED0EBDEC028EF2DABDF1398EF2F9BDEC0B3504BDEFE28EF2FE7EED13BDEEA815
:20F340008EF109BDEE5D27674D26037EEC838E004ABDEE7E5F96612A10BDEF378E004A964A
:20F3600061BDEEE9260343D601BDEE953404BDF3038E004ABDED138D363502461025FDB271
:20F38000398138AA3B29077134583E5674167EB31B772FEEE3857A1D841C2A7C6359580A08
:20F3A0007E75FDE7C6803172181081000000008EF381BDED13BDEE78964F818825037EED81
:20F3C000A5BDEF3796018B8127F44A34028E0040BDEC028EF386BDF1480F623502BDED910E
:20F3E00039BDEEB62B037EEF3703548DF97EF132BDF81E326286019798BDDFA21025ED7F27
:20F40000BDEA3B1F208300F5D797DC2BBDF015BDEBF58E00F4D69826255FBDF544BDFCE94D
:20F42000250B80303402860A3DEBE020EDC001C90181412605BDEBA520BB814C260B8D31B5
:20F440000F98BDEBA520C33262810D260D8D22BDEBA58E00F49F837EDF4B814527F1815188
:20F460002606BDEBA57EDF228D0220AD812026108CC6F9A6842708BDDB1430015A26F43933
:20F48000814426486D8427F78D045A26F7390A97311F3121A621A7A426F8398149271381B8
:20F4A00058270D8148265C6F841F108300F5D7978DBFBDF544810D278E811B272581082651
:20F4C000228C00F427EC8D458DC420E6814326CB6D84270EBDF544250220F5A7808D375AFC
:20F4E00026EE39D697C1F9260220C734106D8026FCE682E701ACE426F83262A7808D170CCD
:20F500009720AF810826128D045A26FB398C00F427D0301F86087EDB14814B2705805327CC
:20F52000013934028D1E3402A68427166D6126068DE430012003BDF48EA684A1E426E95AFD
:20F5400026E635A0BDDB00817F24F9815F2602861B810D270E811B270A8108270681202560
:20F56000E31A0139864F978C398600D6791D7EE778BDE4F3DC1F3406BDE5DBBDE4F0350642
:20F580001E109C1F26517EE7789D7CBDE4F3BDE5DB3410EC02109321230493272312E6848E
:20F5A000BDE7F13410AE62BDE8C73550AF423440BDE9BC34045D271FC6FF81292703BDE990
:20F5C000BC3404BDE4F0C6AEBDE4F88D2E1F13AE62A684A06124037EE6CE4CA1E42402A77A
:20F5E000E4A6611E89AE025A3A4D270DA1E42302A6E41F891E31BDDCAE3596BDE3DF7EE892
:20F60000D8BDE4F3BDE98F3404BDE4F6BDE3DFBDE4F096062605BDE9922003BDE928340442
:20F62000E661BDE79335062705A7805A26FB7EE91FBDE4F3BDE3DFC601340496062610BD1C
:20F64000E992E7E42791BDE4F6BDE3DFBDE3CF9E523410BDE4F6BDF5FB3414BDE4F0AE63C5
:20F66000BDE8DD3404E1662523A661271CE6665A3A3184EE62E661A6E4A0664CA161250CBC
:20F68000A680A1C0260C5A26F7E666215F32677EE7776C66302120D98126265C32620F52BF
:20F6A0000F538E00529D7C814F2712814827239D82200C81381022EE47C6038D2A9D7C25AA
:20F6C000F20F500F510F060F630F54C6A0D74F7EEC659D7C250BBDE62625E6814724E280C9
:20F6E00007C6048D0220EB680169841025F5EC5A26F58030AB01A7013935400F069E839D39
:20F700007C8126279981B0275E81FF26089D7C8183102700AB9F836EC49E68300126D9C653
:20F72000167EDF03AE9F00838CFF83102700748D238DE6BDE4F3C680D708BDE5DB8D25BD02
:20F74000E4F0C6AEBDE4F89E4BDC83ED84DC39ED027EE18DC6B0BDE4F8C680D7088A80BD24
:20F76000E5E09F4B7EE3CC8DEB3410BDE4EB8DF43540C632AE4227A9109E83EEC4DF83A6CC
:20F78000043402EC84EE023476BDEE7EBDE3CA3576ED84EF023502A7049D821026ED6110F0
:20F7A0009F83399D7C8D0934108D2D3540AFC4395F9D7C240680301F899D7C9E8D583A3917
:20F7C0008DEEAE843410BDE4EB8E004F96062707BDE8DB9E52960639C6AEBDE4F87EE9C18B
:20F7E0001027EEEABDE214BDDFA29F939D82271081A7263B9D7C27048D24200486FF972B98
:20F80000DE938CEEC4ECC42706EC42932B23F49E938D15BDDFC29E93BDDF927EDF22BDE2AB
:20F82000147EDCB7A6C0A78011931B26F79F1B39BDF7199D7C8122260BBDE4CDC63BBDE47D
:20F84000F8BDEBE8327EBDE2C93262BDE5DB9F3BBDE3CF8E00F34FBDE7A07EE251BDE21436
:20F860009E2B399E919F2B7EDFA2BDDFC7CC000ADD95DD8F5FDD919D8224068DE09F959D23
:20F8800082271BBDE4F624068DD39F919D82270EBDE4F624068DC69F8F2749BDDCB78DC3AD
:20F8A0009F939E958DBF9C93253A8D1CBDF93EBDDF908DAF9F938D3A8D0F8D36BDF9D9BD60
:20F8C000DFC7BDDF907EDF22864F97989E93DC958D150D982602ED02AE848D0BD38F25047E
:20F8E00081FA25EE7EE6CE3406EC84350626023262399E19301F30018DED30033001A6842F
:20F9000027F49F0F4A270C4A272A4A26EF8603A78020E7EC016A0227014FE6036A042701A1
:20F920005FED01DD2BBDDFA29E0F25E1DC476C80ED8420C66F84AE01AE029F4720EA9E1922
:20F9400020049E8330018D9F300230019F839D7C4D27EF2AF99E8381FF27EF81A22712814D
:20F9600084270E818126E79D7C81A0270481A126DB9D7C25049D8220D79E833410BDE214C7
:20F980009E83A682BDFCE925F930011F10E061C0052720250A3384503085BDF82820149F16
:20F9A000479E1B9F435030859F419F1BBDDEDB9E459F8335108601A784A702A704D62B26D9
:20F9C00004C6016C02E701D62C2604C6016C04E7039D82812C279A209C9E19301F3001EC4D
:20F9E00002DD68BDF8E730033001A68427EF4A271B800226F334108EFA36BDEBE5AEE4EC4C
:20FA000001BDF015BDF00EBDEBA535103410EC01DD52BDF6C1BDF0223540C6053001A68498
:20FA200027055AA7C020F530C45D27BE31C433C5BDF82830A420B3554C2000BDE9C48E0163
:20FA4000F0C60434045F860408530952594A26F85D260AA6E44A27058C01F0270CCB30C15B
:20FA6000392302CB07E7806F8435045A26D532628E01EF7EE79C860197995ABDFC179D825B
:20FA800010270093D793BDE3DFBDE3CF9E529F4DD699BDE931BDEBE89E52D699E0845A1065
:20FAA0002B014FBDEBF520F6D7939F0F86029799A684812527C4812026070C9930015A2669
:20FAC000EF9E0FD6938625BDFC17BDDB14202981B12701393262BDE3E1BDE3CFC63BBDE4F8
:20FAE000F89E529F952006969727089E950F97E68426037EE6CEAE020F9A0F99A680812101
:20FB00001027FF728123275B5A2616BDFC17BDDB149D8226D296972603BDEBA59E957EE8B2
:20FB2000DD812B2609BDFC178608979A20CC812E274E81251027FF70A184268B8124271967
:20FB4000812A26F6969A8A20979AC1022511A6018124260B5A30010C99969A8A10979A3002
:20FB6000010C990F980C995A2749A680812E271E812327F1812C2621969A8A40979A20E5CF
:20FB8000A68481231026FF3F8601979830010C985A2720A680812327F5815E2616A18426AB
:20FBA00012A101260EA102260AC1042506C00430040C9A301F0C99969A850826180A995D0D
:20FBC0002713A684802D270681FE260986088A049A9A979A5A9D821027FF3CD793BDE3CAF9
:20FBE00096999B9881111022EAE4BDFC24301FBDEBE50F979D82270D9797813B2705BDE4A8
:20FC0000F620029D7C9E95E684D093AE023AD6931026FEE47EFB113402862B0D9A2703BD49
:20FC2000DB143582CE01F2C620969A85082702C62B0D542A040F54C62DE7C0C630E7C084F3
:20FC400001102601078EF009BDEEE92B15BDF022A68026FCA682A7018C01F126F78625A736
:20FC60008439964F97472703BDFE0C9647102B0081409B998009BDFD29BDFEA2BDFE4196AB
:20FC800047BDFEC09647BDFE8896982602335F4ABDFD29BDFDC44D2706C12A2702E7C06F4B
:20FCA000C48E01F130019F0F963A901090992738A684812027EE812A27EA4F3402A6808161
:20FCC0002D27F8812B27F4910027F08130260EA6018D1625083502A78226FA20C735024D22
:20FCE00026FB9E0F8625A7823981302504803A80C639969827014A9B472B014F34022A0AAF
:20FD00003402BDEDCB35024C20F49647A0E097478B092B199699800990478D0DBDFEA220E8
:20FD20001D34028630A7C035024A2AF53996998DF8BDFE8C86F790478DEF0F450F97BDFEFA
:20FD40004196982602DE399B4716FF43964F34022703BDFE0C969827014A9B997F01F1D694
:20FD60009AC40426037301F1BB01F1800934022A0A3402BDEDCB35024C20F4A6E42B014FAC
:20FD8000409B994CBB01F197450F97BDFE413502BDFEC096982602335FE6E02709D647CB00
:20FDA00009D099F001F1862B5D2A03862D50A7418645A7C1862F4CC00A24FBCB3AEDC16F8A
:20FDC000C47EFC938E01F2E68434048620D69AC52035042708862AC12026021F893404A78C
:20FDE00080E6842710C145270CC13027F2C12C27EEC12E26048630A782969A85102704C6EF
:20FE000024E782840435042602E7823934404F9747D64FC18022118EF009BDED13964780EF
:20FE20000920ECBDEDCB0C478EF004BDEEE92EF38EEFFFBDEEE92E07BDEDB30A4720F13575
:20FE4000C03440BDEBFDBDEF1135408EF10EC6808D369653AB0397539652A902975296511D
:20FE6000A90197519650A98497505C565928E32403C00B50CB2F30041F98847FA7C053C438
:20FE8000808CF13226CA6FC40A452609DF39862EA7C00F97390A97260886039797862CA7A1
:20FEA000C03996478B0A97454C800324FC8B059797969A8440260297973934028DCA350207
:20FEC0004A2B0A34028630A7C0A6E026ED3981891027F95C7EE500FFFFFFFFFFFFFFFFFF8E
:20FEE000FFFFFFFFFFFFFFFFFFFFFFFFFFFFFFFFFFFFFFFFFFFFFFFFFFFFFFFFFFFFFFFF22
:20FF0000FFFFFFFFFFFFFFFFFFFFFFFFFFFFFFFFFFFFFFFFFFFFFFFFFFFFFFFFFFFFFFFF01
:20FF2000FFFFFFFFFFFFFFFFFFFFFFFFFFFFFFFFFFFFFFFFFFFFFFFFFFFFFFFFFFFFFFFFE1
:20FF4000FFFFFFFFFFFFFFFFFFFFFFFFFFFFFFFFFFFFFFFFFFFFFFFFFFFFFFFFFFFFFFFFC1
:20FF6000FFFFFFFFFFFFFFFFFFFFFFFFFFFFFFFFFFFFFFFFFFFFFFFFFFFFFFFFFFFFFFFFA1
:20FF8000FFFFFFFFFFFFFFFFFFFFFFFFFFFFFFFFFFFFFFFFFFFFFFFFFFFFFFFFFFFFFFFF81
:20FFA000FFFFFFFFFFFFFFFFFFFFFFFFFFFFFFFFFFFFFFFFFFFFFFFFFFFFFFFFFFFFFFFF61
:20FFC000FFFFFFFFFFFFFFFFFFFFFFFFFFFFFFFFFFFFFFFFFFFFFFFFFFFFFFFFFFFFFFFF41
:20FFE000FFFFFFFFFFFFFFFFFFFFFFFFFFFFFFFF0000009B009E00AA00A700A100A4DB4621
:00000001FF
